:10083A004469616E20796120736875206A753A008F
:10081700100E4348203D20000000000000000000AB
:020827000000CF
:03001F00DFFE22DF
:070003007F381207F17F05B1
:10000A00AE07AF061EEF600C7FF512001F7FF512D8
:05001A00001F80EE2232
:0B084A00EF1FAC0670011E4C70F62280
:10082A007580FFC290D291C29200D292E5803322A3
:1007F100AD077F0512000AC290C291D2928D80008E
:03080100C292227E
:10080400AD077F0512000AD290C291D2928D80006A
:03081400C292226B
:0A0855007F011207F17F0502000A7F
:1007D900AE07AC03ED7005EE24808003EE24C0FF64
:0807E9001207F1AF040208043D
:10079300AE07ED7005EE24808003EE24C0FF120740
:1007A300F1120383FF600C120804740129F9E43A7F
:0407B300FA80EE22B8
:1007B7001200031200031200037F381207F17F08AB
:1007C7001207F17F011207F17F061200057F0C0265
:0207D70007F128
:10063100E4F9EF70027F02BF01027F03D2A2000042
:10064100C2A00000D2A10000C2A10000D2A1EF13FC
:1006510092A20000C2A10000D2A1EFC3131392A283
:100661000000C2A1D2A20000E4FAFBFDA2A2E43381
:100671004203D2A10000C2A10000EB25E0FBEA3356
:10068100FABD0706A2A2E43342030DBD08DEE4FD74
:10069100E4A2A233D2A10000C2A10000C4333333CB
:1006A10054804201EDC394075004E9C313F90DBD11
:0C06B10008DED2A0C2A1D2A28B088909E9
:0106BD00221A
:1003BC00AC08E41202CEE4FBFA797F7843120227F0
:1003CC00E4FBFA79A0784012011E8F0D8E0C8D0B78
:1003DC008C0A1203028F1275132EE4FFFE7D207C13
:1003EC0041AB0DAA0CA90BA80A12011EC004C00532
:1003FC00C006C007AF127E007C007D0A12039CACC5
:10040C0006AD07E41202C9A804A905AA06AB07D0D9
:10041C0007D006D005D0041200291203028F14E471
:10042C00FFFE7DC87C42AB0DAA0CA90BA80A1201D9
:10043C001EC004C005C006C007AF127E007C007D44
:10044C006412039CAC06AD07E41202C9A804A9050A
:10045C00AA06AB07D007D006D005D004120029C0DD
:10046C0004C005C006C007AF147E007C007D0A12D4
:10047C00039CAC06AD07E41202C9A804A905AA06A0
:10048C00AB07D007D006D005D00412002912030206
:10049C008F15E4FFFE7D7A7C44AB0DAA0CA90BA84A
:1004AC000A12011EC004C005C006C007AF127E00B0
:1004BC007C037DE812039CAC06AD07E41202C9A8CC
:1004CC0004A905AA06AB07D007D006D005D00412A4
:1004DC000029C004C005C006C007AF147E007C0014
:1004EC007D6412039CAC06AD07E41202C9A804A9F2
:1004FC0005AA06AB07D007D006D005D004120029F8
:10050C00C004C005C006C007AF157E007C007D0A84
:10051C0012039CAC06AD07E41202C9A804A905AAF3
:10052C0006AB07D007D006D005D004120029120361
:10053C00028F167F007E407D1C7C46AB0DAA0CA959
:10054C000BA80A12011EC004C005C006C007AF12DA
:10055C007E007C277D1012039CAC06AD07E41202D2
:10056C00C9A804A905AA06AB07D007D006D005D0A8
:10057C0004120029C004C005C006C007AF147E00D9
:10058C007C037DE812039CAC06AD07E41202C9A8FB
:10059C0004A905AA06AB07D007D006D005D00412D3
:1005AC000029C004C005C006C007AF157E007C0042
:1005BC007D6412039CAC06AD07E41202C9A804A921
:1005CC0005AA06AB07D007D006D005D00412002927
:1005DC00C004C005C006C007AF167E007C007D0AB3
:1005EC0012039CAC06AD07E41202C9A804A905AA23
:1005FC0006AB07D007D006D005D004120029120391
:10060C00028F1774302512F51274302514F51474FA
:10061C00302515F51574302516F51674302517F59B
:05062C001775185622AD
:10074A001207B7120855E4FF1206311203BC7BFFE9
:10075A007A08793AE4FDFF120793AB127D017F0410
:10076A001207D97B2E7D017F051207D9AB147D01B3
:10077A007F061207D9AB157D017F071207D97B5671
:09078A007D017F081207D980BD32
:0300230002085F71
:06085F00309802C298323D
:1000260002036EE86480F8E933E83360110460F097
:10003600ED33EC337009E8FCE9FDEAFEEBFF220440
:1000460060DED3EB9FEA9EE99DE8C2E78CF0C2F73B
:1000560095F0400CE8CCF8E9CDF9EACEFAEBCFFB07
:1000660012033985D0F05804700320D5B3E8047024
:10007600075002B2D502037892D5EC0460F7E4CCBF
:10008600C0E0C398F8603B94186008400DD0E0FBD0
:10009600020350E4FBFAC9FC8028E830E406E4C910
:1000A600FBE4CAFCE830E305E4C9CACBFCE8540724
:1000B6006010F8C3E913F9EA13FAEB13FBEC13FC2F
:1000C600D8F130F52FC3E49CFCEF9BFFEE9AFEEDD2
:1000D60099FDD0E0FBEF4E4D4C701222DB0302037C
:1000E60075EC2CFCEF33FFEE33FEED33FDED30E720
:1000F600EB020350EF2BFFEE3AFEED39FDD0E0FBAD
:1001060050130BBB0003020378ED13FDEE13FEEF55
:0801160013FFEC13FC0203507F
:10011E00EC4D6011E8497017ED33EC3304600DE4DB
:10012E00FCFFFEFD22E933E8330470F802036E1281
:10013E00033958046009E4CC248150062850090282
:10014E000378284003020375C0E0EB4A7044B9807F
:10015E0006D0E0FB020364EF4E701CBD8008EBFF7F
:10016E00EAFEE9FD80EBE98DF0A4FEE5F002020760
:10017E00E9CDF9EAFEEBFFEF89F0A4FCE5F0CE89BC
:10018E00F0A42EFFE435F0CD89F0A42DFEE435F079
:10019E008067EF4E7005BD80D780C3EF8BF0A4ACA7
:1001AE00F0EE8BF0A42CFCE435F0F8EF8AF0A42CE2
:1001BE00E5F038FCE433CB8DF0A42CFCE5F03BF8F5
:1001CE00EE8AF0A42CFCE5F038F8E433CF89F0A4E5
:1001DE002CFCE5F038CF3400CE89F0A42FFFE5F0EB
:1001EE003EFEE433C98DF0A42EFEE5F039CD8AF043
:1001FE00A42FFFE5F03EFEE43DFD33D0E0FB5007BB
:10020E000BBB000F020378EC2CFCEF33FFEE33FE3A
:06021E00ED33FD02035068
:10022400020378EC5D046005E85904700302036E70
:10023400120339580460F6EC4860F2EC7004FDFED9
:10024400FF22C860DB2481C85009C39860025006AD
:100254000203759850CAF582E9294B4A7005AB82AE
:1002640002036475F0007C1A7880C3EF9BEE9AED6C
:1002740099400DC3EF9BFFEE9AFEED99FDE842F025
:10028400DC23ACF0D0E0FFD0E0FED0E0FDAB822078
:10029400E7101BEB60BAEC2CFCEF33FFEE33FEED02
:1002A40033FD020350E803F830E705C0F075F000B1
:1002B400EF2FFFEE33FEED33FD40B830E7C280AAE6
:1002C40075F020800E75F010800575F0087D007EB5
:1002D400007F003392D530D5031203AEEC334010C7
:1002E400EF33FFEE33FEED33FDEC33FCD5F0ED22BE
:0E02F400E5F0247EA2D513CC92E7CDCEFF22FA
:10030200EDD2E7CD33EC3392D524814006E4FFFEF3
:10031200FDFC22FCE4CFCECDCC24E0501174FF8052
:10032200EDC3CC13CCCD13CDCE13CECF13CF0470EF
:07033200F030D5DE0203AE3E
:10033900E9D2E7C933E833F892D5EDD2E7CD33EC0A
:0703490033FC5002B2D52283
:10035000EC30E7100FBF000C0EBE00080DBD00040E
:100360000BEB6014A2D5EB13FCED92E7FD2274FFBA
:10037000FCFDFEFF22E480F8A2D574FF13FC7D8013
:03038000E480EF27
:030000000206BE37
:0C06BE00787FE4F6D8FD75811D02070569
:10038300BB010689828A83E0225002E722BBFE0278
:09039300E32289828A83E49322AB
:10039C00EF8DF0A4A8F0CF8CF0A428CE8DF0A42E75
:0203AC00FE222F
:0E03AE00C3E49FFFE49EFEE49DFDE49CFC2260
:1006CA0002074AE493A3F8E493A34003F68001F2F5
:1006DA0008DFF48029E493A3F85407240CC8C33331
:1006EA00C4540F4420C8834004F456800146F6DF00
:1006FA00E4800B0102040810204080900817E47E71
:10070A00019360BCA3FF543F30E509541FFEE493F4
:10071A00A360010ECF54C025E060A840B8E493A3BB
:10072A00FAE493A3F8E493A3C8C582C8CAC583CAE6
:10073A00F0A3C8C582C8CAC583CADFE9DEE780BE9E
:0108290000CE
:00000001FF
